:1000000036C050C014C14EC04DC04CC04BC04AC0D9
:1000100049C048C047C046C045C044C043C00902AB
:10002000120001010080140904000000000000001B
:1000300012011001FF000008C016DC0500010102DA
:10004000000116034C004500440043006F006E00A1
:10005000740072006F006C0012036F006200640095
:10006000650076002E006100740004030904112469
:100070001FBECFE5D2E0DEBFCDBF10E0A0E6B0E00E
:10008000E8E6F7E002C005900D92A436B107D9F773
:1000900020E0A4E6B0E001C01D92A63CB207E1F763
:1000A00034D360C3ADCFFC018181811114C0828142
:1000B00080936700838180936800848180936900C6
:1000C000858180936A0087E690E09093AB008093EF
:1000D000AA0084E00895823059F48AE28093670090
:1000E00087E690E09093AB008093AA0081E00895AA
:1000F00080E00895B99AE9E9F0E011821082128255
:10010000339780E0E138F807C1F786E980936D0006
:1001100080936C0080936E008FEF8093700010923C
:100120006F00109271008093730094E690937200B8
:10013000109274009093760080937500109277006F
:10014000109279008093780010927A0010927C00CF
:1001500090937B0080937D0010927F0010927E0030
:10016000809380009093820010928100809383009E
:100170000895CF93DF938091650090916600803859
:1001800022E0920740F40196909366008093650008
:10019000DF91CF9108951092660010926500209132
:1001A0006400C22FD0E0E9E9F0E038E0832F8770E7
:1001B000AE01480F511DCA01019763E070E0C1D242
:1001C000DC01A459BF4F11968C91119781838C91BA
:1001D000808312968C918283315033973111E6CF10
:1001E000273048F42F5F2093640068E170E084E8D2
:1001F00090E089D2CDCF10926400F7CFA82FB92F0D
:1002000080E090E041E050EA609530E009C02D9137
:1002100082279795879510F084279527305EC8F33D
:100220006F5FA8F30895EADF8D939D930895CF93B0
:10023000CFB7CF93C395B39BE9F7B39B0BC0B39BE9
:1002400009C0B39B07C0B39B05C0B39B03C0B39B5E
:1002500001C0D3C00F92DF93C091A900DD27C05524
:10026000DF4F012EB39B03C0DF910F90E6CF2F939A
:100270000F931F934F932FEF4F6F06B303FB20F99C
:100280005F933F9350E03BE065C016B301265029D1
:1002900053FDC89556B3012703FB25F92F7306B309
:1002A000B1F05027102713FB26F906B22230F0F0E8
:1002B00000C016B3012703FB27F90126502906B217
:1002C0002430E8F54F77206816B30000F6CF5027AA
:1002D0004F7D206206B2102F000000C006B300263A
:1002E0005029102713FB26F906B2E2CF4F7B06B345
:1002F000206400C0DACF01265029187106B269F1D6
:100300004E7F2160012F16B328C0002650294D7F53
:1003100006B22260102F29C0012650294B7F06B259
:100320002460012F2DC016B301265029477F286075
:10033000000006B22EC04F7E06B3206130C04227B7
:1003400006B3499300265029102706B24FEF13FB3E
:1003500020F9297F16B379F2187159F10126502935
:1003600006B2012703FB21F9237F06B371F20026B1
:1003700050293150D0F006B2102713FB22F9277E06
:1003800016B351F201265029012703FB06B223F9C7
:100390002F7C49F2000006B3102713FB24F9002636
:1003A000502906B22F7939F270CF10E21ABF002718
:1003B00017C03B503195C31BD04010E21ABF0881D3
:1003C000033CF9F00B34E9F02091A7001981110FDB
:1003D0001213EDCF093651F10D3211F0013E39F70C
:1003E0000093AE003F915F914F911F910F912F911C
:1003F000DF910F90CAB7C5FD1DCFCF91CFBFCF9171
:1004000018952091AE00222369F31091AC001123BE
:1004100021F5343022F13093AC002093A8001091E4
:10042000A9003BE0311B3093A90019C00091AC003A
:1004300001309CF40AE53091630034FD11C0009353
:100440006300CCE9D0E010C0052710E000C021C057
:10045000052710E0C89508BB14C03AE501C032ED8D
:10046000032EC0E0D0E032E017B31861C39A08B39E
:1004700017BB58E120E84FEF20FF052708BB279561
:1004800017951C3F28F700004552B0F720FF0527BD
:10049000279508BB17951C3FB8F629913A9561F747
:1004A000077E1091AD00110F08BBC250D04011F073
:1004B0001093A70010E21ABF086017B3177E402FF1
:1004C000477E54E05A95F1F708BB17BB48BB8ACF6B
:1004D000CF93DF938091AC00835087FD27C090912C
:1004E000A8009D3209F58830F9F48091A900CCE08C
:1004F000D0E0C81BD109C055DF4F83EC80939C002E
:100500008AE58093630010926B008881807609F4FD
:1005100057C0CE01C8DD9F81911104C09E819817FC
:1005200008F4892F809362001092AC0080916300E0
:1005300084FF39C0809162008F3FA9F1C82F8930B4
:1005400008F0C8E08C1B8093620080919C0098E8C2
:10055000892780939C00CC23D1F08091AA009091B0
:10056000AB0020916B0026FF82C0ADE9B0E0FC013A
:100570002C2F34913D9331962150D9F701962FEFCE
:100580002C0F820F911D9093AB008093AA006C2FCB
:100590008DE990E048DECC5FCC3019F08FEF80938E
:1005A0006200C093630084E196B3987131F4815086
:1005B000D9F71092AD001092A700DF91CF91089566
:1005C0002A811092A500998191110AC01092A6006B
:1005D00025EA30E082E03093AB002093AA009BCF65
:1005E000953029F42093AD0025EA30E0F4CF963021
:1005F00071F59B81913059F480E390E09093AB00CA
:100600008093AA0082E190E490936B0084CF9230B3
:1006100019F48EE190E0F2CF9330A9F7211108C0D0
:100620008AE690E09093AB008093AA0084E0EBCF41
:10063000213019F488E590E0E1CF223021F782E4FF
:1006400090E09093AB008093AA0086E1DCCF9830D5
:1006500051F0993019F42093AF00C6CF81E09A3061
:1006600019F280E0C1CF2FEA30E081E0B4CFEDE9AC
:10067000F0E0DC012C2F3D9131932150E1F77ECF4A
:10068000AC9A8BB780628BBF089527B3242B27BB0E
:1006900038B3242F2095232338B3432B3FB7680F5B
:1006A000791F8617970711F43FBF0895FC015191F8
:1006B000CF01E8E048BB000000C057FF28BB550F42
:1006C00000C000C000C000C028BB00C0EA9591F780
:1006D000E8CF9B01220F331F620F731FD6DF8EEC12
:1006E00090E00197F1F7089542E0F3CF660F771F8E
:1006F000660F771F42E0C9DF89E491E00197F1F7C7
:1007000000C00000089542E0C0CFF4DC9EE088E124
:100710000FB6F894A89581BD0FBE91BDB1DFBB9A0D
:1007200080E0815031F4BB987894A895D1DE21DD2A
:10073000FCCFA895ECE1F0E13197F1F700C00000A3
:10074000F0CF0024552704C0080E591F880F991FA9
:10075000009729F076956795B8F37105B9F7802D64
:08076000952F0895F894FFCFD6
:040768000101FF5A32
:00000001FF
